:1000000000000320D1010000E5C500009DC50000EF
:100010009DC500009DC500009DC500009DC5000058
:100020009DC500009DC500009DC50000E5C5000000
:10003000E5C500009DC50000DDDD0000E1DE00003B
:10004000E5C50000E5C50000E5C50000E5C5000008
:10005000E5C50000E5C50000E5C50000E5C50000F8
:10006000E5C50000E5C50000E5C50000E5C50000E8
:10007000E5C50000E5C50000E5C50000E5C50000D8
:10008000E5C50000E5C50000E5C50000E5C50000C8
:10009000E5C50000E5C50000E5C50000E5C50000B8
:1000A0008962000095620000E5C50000E5C500001A
:1000B000E5C50000E5C50000E5C5000021E1000040
:1000C000E5C500004DE20000E5C5000079E3000051
:1000D000E5C5000071E40000E5C50000E5C50000CD
:1000E000E5C50000E5C50000E5C50000E5C5000068
:1000F000E5C50000E5C50000E5C50000E5C5000058
:10010000E5C50000E5C50000E5C50000E5C5000047
:10011000E5C50000B1CC0000E5C50000E5C5000064
:10012000E5C50000E5C50000E5C50000E5C5000027
:10013000E5C50000E5C50000E5C50000E5C5000017
:1001400091DB0000E5C5000069E50000E5C50000A1
:10015000E5C50000E5C50000E5C50000E5C50000F7
:10016000E5C50000E5C50000A1620000E5C500008E
:10017000E5C50000E5C50000E5C50000E5C50000D7
:10018000E5C50000E5C50000E5C50000E5C50000C7
:10019000E5C50000E5C5000061E60000E5C500001A
:1001A000E5C50000E5C50000E5C50000AD62000042
:1001B000E5C50000E5C50000E5C50000E5C5000097
:1001C000E5C50000E5C50000E5C50000E5C5000087
:1001D0005C4B4CF2205210B51A804DF628121A8052
:1001E00000BF00BF0CF002FA574B4FF030621A60AC
:1001F000564A9A60564ADA60564B4FF470021A60BB
:10020000554B564A1A60564A136813F4807304D14A
:1002100054490B604FF4A8531360534B1A781107DD
:1002200003D51A7842F008021A70504B5049AA229E
:100230001A70504A504B8B4204D252F8040F43F8C4
:10024000040BF8E74D4B4E4900228B4202D243F893
:10025000042BFAE74B494C4A002352F8230041F89B
:1002600023000133742BF8D1484B494A802103F80D
:10027000011B9342FBD1474B424A1A60464B8A22EC
:100280001A70A3F5805324225A70A0221A709A790A
:100290009207FCD59A79D406FCD4404A937903F0AE
:1002A0000C03082BFAD13E4B60221A7002331A78E5
:1002B000802AFCD1394B01221A715D225A719A7938
:1002C0009006FCD59979354A4906FBD5354B364918
:1002D00019600021596020231370937903F00C03F7
:1002E0000C2BFAD1314B324A1A60324B324A1A6027
:1002F00000225A60072243F8042C304AC3F80C2D20
:1003000062B60CF067FB174B1B68DA0705D52C4863
:100310000CF0BEFA2B4B2C4A1A602C4B1B785B0658
:1003200009D5284C284B22689A4204D124480CF065
:10033000AFFA0023236010F013F90CF05DF90DF013
:10034000D7FDFEE70E20054030800440823F0400C8
:100350000100002B88ED00E0002008E0030000858C
:1003600010D0034014D0034002D0074000E0074003
:10037000C42EFF1F882301003019FF1FC42EFF1F4A
:100380007C3BFF1F0014FF1F0000000000E400E0A2
:1003900064E400E008ED00E0005006400040064044
:1003A00001E007404480044000000602048004404D
:1003B000C010070014E000E01FBF02000000202072
:1003C000E4D9845A1CE00340A5C3945A00F00740C6
:1003D000FFFFFFFFFFFFFFFFFFFFFFFFFFFFFFFF2D
:1003E000FFFFFFFFFFFFFFFFFFFFFFFFFFFFFFFF1D
:1003F000FFFFFFFFFFFFFFFFFFFFFFFFFFFFFFFF0D
:10040000FFFFFFFFFFFFFFFFFFFFFFFFDEF9FFFF23
:1004100010B5054C237833B9044B13B10448AFF33E
:1004200000800123237010BDC42EFF1F00000000B8
:100430008C230100084B10B51BB108490848AFF3E5
:1004400000800848036803B910BD074B002BFBD0A0
:10045000BDE81040184700BF00000000C82EFF1F75
:100460008C230100C42EFF1F00000000214B10B49C
:10047000D3F8EC201368506819780478507A137A0E
:10048000044201EA03011BD0937A03F0030309B18C
:1004900043F0040343F008039910013B91720D2BC4
:1004A0000BD8DFE803F021071B070A152121150AE5
:1004B000071B0721D368013BD3605DF8044B7047ED
:1004C000937A03F003030029E6D043F00403E3E743
:1004D000D3685DF8044B023BD3607047D3685DF886
:1004E000044B0233D3607047D3685DF8044B01338B
:1004F000D36070476432FF1F214B10B4D3F8E4205F
:100500001368506819780478507A137A044201EA23
:1005100003011BD0937A03F0030309B143F00403F2
:1005200043F008039910013B91720D2B0BD8DFE8C3
:1005300003F021071B070A152121150A071B0721B4
:10054000D368013BD3605DF8044B7047937A03F0A6
:1005500003030029E6D043F00403E3E7D3685DF822
:10056000044B023BD3607047D3685DF8044B023301
:10057000D3607047D3685DF8044B0133D360704794
:100580006432FF1F214B10B4D3F8E8201368506881
:1005900019780478507A137A044201EA03011BD0D7
:1005A000937A03F0030309B143F0040343F0080313
:1005B0009910013B91720D2B0BD8DFE803F0210756
:1005C0001B070A152121150A071B0721D368013BC8
:1005D000D3605DF8044B7047937A03F0030300295E
:1005E000E6D043F00403E3E7D3685DF8044B023B35
:1005F000D3607047D3685DF8044B0233D360704713
:10060000D3685DF8044B0133D36070476432FF1F39
:10061000214B10B41A681368506819780478507A1E
:10062000137A044201EA03011BD0937A03F0030317
:1006300009B143F0040343F008039910013B9172A0
:100640000D2B0BD8DFE803F021071B070A1521212A
:10065000150A071B0721D368013BD3605DF8044BE3
:100660007047937A03F003030029E6D043F00403B4
:10067000E3E7D3685DF8044B023BD3607047D3686F
:100680005DF8044B0233D3607047D3685DF8044BC8
:100690000133D360704700BF6432FF1F214B10B499
:1006A0005A681368506819780478507A137A0442AB
:1006B00001EA03011BD0937A03F0030309B143F06D
:1006C000040343F008039910013B91720D2B0BD8E2
:1006D000DFE803F021071B070A152121150A071B74
:1006E0000721D368013BD3605DF8044B7047937AD0
:1006F00003F003030029E6D043F00403E3E7D368E3
:100700005DF8044B023BD3607047D3685DF8044B3F
:100710000233D3607047D3685DF8044B0133D36074
:10072000704700BF6432FF1F214B10B49A681368F2
:10073000506819780478507A137A044201EA030168
:100740001BD0937A03F0030309B143F0040343F091
:1007500008039910013B91720D2B0BD8DFE803F0D1
:1007600021071B070A152121150A071B0721D3683A
:10077000013BD3605DF8044B7047937A03F00303A9
:100780000029E6D043F00403E3E7D3685DF8044BA7
:10079000023BD3607047D3685DF8044B0233D360EB
:1007A0007047D3685DF8044B0133D360704700BFD6
:1007B0006432FF1F214B10B4DA681368506819784F
:1007C0000478507A137A044201EA03011BD0937A29
:1007D00003F0030309B143F0040343F00803991045
:1007E000013B91720D2B0BD8DFE803F021071B07AB
:1007F0000A152121150A071B0721D368013BD36085
:100800005DF8044B7047937A03F003030029E6D0A8
:1008100043F00403E3E7D3685DF8044B023BD36085
:100820007047D3685DF8044B0233D3607047D368D8
:100830005DF8044B0133D360704700BF6432FF1F83
:10084000214B10B41A691368506819780478507AEB
:10085000137A044201EA03011BD0937A03F00303E5
:1008600009B143F0040343F008039910013B91726E
:100870000D2B0BD8DFE803F021071B070A152121F8
:10088000150A071B0721D368013BD3605DF8044BB1
:100890007047937A03F003030029E6D043F0040382
:1008A000E3E7D3685DF8044B023BD3607047D3683D
:1008B0005DF8044B0233D3607047D3685DF8044B96
:1008C0000133D360704700BF6432FF1F214B10B467
:1008D0005A691368506819780478507A137A044278
:1008E00001EA03011BD0937A03F0030309B143F03B
:1008F000040343F008039910013B91720D2B0BD8B0
:10090000DFE803F021071B070A152121150A071B41
:100910000721D368013BD3605DF8044B7047937A9D
:1009200003F003030029E6D043F00403E3E7D368B0
:100930005DF8044B023BD3607047D3685DF8044B0D
:100940000233D3607047D3685DF8044B0133D36042
:10095000704700BF6432FF1F214B10B49A691368BF
:10096000506819780478507A137A044201EA030136
:100970001BD0937A03F0030309B143F0040343F05F
:1009800008039910013B91720D2B0BD8DFE803F09F
:1009900021071B070A152121150A071B0721D36808
:1009A000013BD3605DF8044B7047937A03F0030377
:1009B0000029E6D043F00403E3E7D3685DF8044B75
:1009C000023BD3607047D3685DF8044B0233D360B9
:1009D0007047D3685DF8044B0133D360704700BFA4
:1009E0006432FF1F214B10B4DA691368506819781C
:1009F0000478507A137A044201EA03011BD0937AF7
:100A000003F0030309B143F0040343F00803991012
:100A1000013B91720D2B0BD8DFE803F021071B0778
:100A20000A152121150A071B0721D368013BD36052
:100A30005DF8044B7047937A03F003030029E6D076
:100A400043F00403E3E7D3685DF8044B023BD36053
:100A50007047D3685DF8044B0233D3607047D368A6
:100A60005DF8044B0133D360704700BF6432FF1F51
:100A7000214B10B41A6A1368506819780478507AB8
:100A8000137A044201EA03011BD0937A03F00303B3
:100A900009B143F0040343F008039910013B91723C
:100AA0000D2B0BD8DFE803F021071B070A152121C6
:100AB000150A071B0721D368013BD3605DF8044B7F
:100AC0007047937A03F003030029E6D043F0040350
:100AD000E3E7D3685DF8044B023BD3607047D3680B
:100AE0005DF8044B0233D3607047D3685DF8044B64
:100AF0000133D360704700BF6432FF1F214B10B435
:100B0000D3F8A4201368506819780478507A137ABF
:100B1000044201EA03011BD0937A03F0030309B1F5
:100B200043F0040343F008039910013B91720D2B2D
:100B30000BD8DFE803F021071B070A152121150A4E
:100B4000071B0721D368013BD3605DF8044B704756
:100B5000937A03F003030029E6D043F00403E3E7AC
:100B6000D3685DF8044B023BD3607047D3685DF8EF
:100B7000044B0233D3607047D3685DF8044B0133F4
:100B8000D36070476432FF1F214B10B4D3F8A82004
:100B90001368506819780478507A137A044201EA8D
:100BA00003011BD0937A03F0030309B143F004035C
:100BB00043F008039910013B91720D2B0BD8DFE82D
:100BC00003F021071B070A152121150A071B07211E
:100BD000D368013BD3605DF8044B7047937A03F010
:100BE00003030029E6D043F00403E3E7D3685DF88C
:100BF000044B023BD3607047D3685DF8044B02336B
:100C0000D3607047D3685DF8044B0133D3607047FD
:100C10006432FF1F214B10B4D3F8AC201368506826
:100C200019780478507A137A044201EA03011BD040
:100C3000937A03F0030309B143F0040343F008037C
:100C40009910013B91720D2B0BD8DFE803F02107BF
:100C50001B070A152121150A071B0721D368013B31
:100C6000D3605DF8044B7047937A03F003030029C7
:100C7000E6D043F00403E3E7D3685DF8044B023B9E
:100C8000D3607047D3685DF8044B0233D36070477C
:100C9000D3685DF8044B0133D36070476432FF1FA3
:100CA000214B10B4D3F8B020136850681978047839
:100CB000507A137A044201EA03011BD0937A03F0BD
:100CC000030309B143F0040343F008039910013B07
:100CD00091720D2B0BD8DFE803F021071B070A15D3
:100CE0002121150A071B0721D368013BD3605DF85A
:100CF000044B7047937A03F003030029E6D043F0D6
:100D00000403E3E7D3685DF8044B023BD36070470C
:100D1000D3685DF8044B0233D3607047D3685DF845
:100D2000044B0133D36070476432FF1F214B10B472
:100D3000D3F8B4201368506819780478507A137A7D
:100D4000044201EA03011BD0937A03F0030309B1C3
:100D500043F0040343F008039910013B91720D2BFB
:100D60000BD8DFE803F021071B070A152121150A1C
:100D7000071B0721D368013BD3605DF8044B704724
:100D8000937A03F003030029E6D043F00403E3E77A
:100D9000D3685DF8044B023BD3607047D3685DF8BD
:100DA000044B0233D3607047D3685DF8044B0133C2
:100DB000D36070476432FF1F214B10B4D3F8B820C2
:100DC0001368506819780478507A137A044201EA5B
:100DD00003011BD0937A03F0030309B143F004032A
:100DE00043F008039910013B91720D2B0BD8DFE8FB
:100DF00003F021071B070A152121150A071B0721EC
:100E0000D368013BD3605DF8044B7047937A03F0DD
:100E100003030029E6D043F00403E3E7D3685DF859
:100E2000044B023BD3607047D3685DF8044B023338
:100E3000D3607047D3685DF8044B0133D3607047CB
:100E40006432FF1F214B10B4D3F8BC2013685068E4
:100E500019780478507A137A044201EA03011BD00E
:100E6000937A03F0030309B143F0040343F008034A
:100E70009910013B91720D2B0BD8DFE803F021078D
:100E80001B070A152121150A071B0721D368013BFF
:100E9000D3605DF8044B7047937A03F00303002995
:100EA000E6D043F00403E3E7D3685DF8044B023B6C
:100EB000D3607047D3685DF8044B0233D36070474A
:100EC000D3685DF8044B0133D36070476432FF1F71
:100ED000214B10B4D3F8C0201368506819780478F7
:100EE000507A137A044201EA03011BD0937A03F08B
:100EF000030309B143F0040343F008039910013BD5
:100F000091720D2B0BD8DFE803F021071B070A15A0
:100F10002121150A071B0721D368013BD3605DF827
:100F2000044B7047937A03F003030029E6D043F0A3
:100F30000403E3E7D3685DF8044B023BD3607047DA
:100F4000D3685DF8044B0233D3607047D3685DF813
:100F5000044B0133D36070476432FF1F214B10B440
:100F6000D3F8C4201368506819780478507A137A3B
:100F7000044201EA03011BD0937A03F0030309B191
:100F800043F0040343F008039910013B91720D2BC9
:100F90000BD8DFE803F021071B070A152121150AEA
:100FA000071B0721D368013BD3605DF8044B7047F2
:100FB000937A03F003030029E6D043F00403E3E748
:100FC000D3685DF8044B023BD3607047D3685DF88B
:100FD000044B0233D3607047D3685DF8044B013390
:100FE000D36070476432FF1F214B10B4D3F8C82080
:100FF0001368506819780478507A137A044201EA29
:1010000003011BD0937A03F0030309B143F00403F7
:1010100043F008039910013B91720D2B0BD8DFE8C8
:1010200003F021071B070A152121150A071B0721B9
:10103000D368013BD3605DF8044B7047937A03F0AB
:1010400003030029E6D043F00403E3E7D3685DF827
:10105000044B023BD3607047D3685DF8044B023306
:10106000D3607047D3685DF8044B0133D360704799
:101070006432FF1F214B10B4D3F8CC2013685068A2
:1010800019780478507A137A044201EA03011BD0DC
:10109000937A03F0030309B143F0040343F0080318
:1010A0009910013B91720D2B0BD8DFE803F021075B
:1010B0001B070A152121150A071B0721D368013BCD
:1010C000D3605DF8044B7047937A03F00303002963
:1010D000E6D043F00403E3E7D3685DF8044B023B3A
:1010E000D3607047D3685DF8044B0233D360704718
:1010F000D3685DF8044B0133D36070476432FF1F3F
:10110000214B10B4D3F8D0201368506819780478B4
:10111000507A137A044201EA03011BD0937A03F058
:10112000030309B143F0040343F008039910013BA2
:1011300091720D2B0BD8DFE803F021071B070A156E
:101140002121150A071B0721D368013BD3605DF8F5
:10115000044B7047937A03F003030029E6D043F071
:101160000403E3E7D3685DF8044B023BD3607047A8
:10117000D3685DF8044B0233D3607047D3685DF8E1
:10118000044B0133D36070476432FF1F214B10B40E
:10119000D3F8D4201368506819780478507A137AF9
:1011A000044201EA03011BD0937A03F0030309B15F
:1011B00043F0040343F008039910013B91720D2B97
:1011C0000BD8DFE803F021071B070A152121150AB8
:1011D000071B0721D368013BD3605DF8044B7047C0
:1011E000937A03F003030029E6D043F00403E3E716
:1011F000D3685DF8044B023BD3607047D3685DF859
:10120000044B0233D3607047D3685DF8044B01335D
:10121000D36070476432FF1F214B10B4D3F8D8203D
:101220001368506819780478507A137A044201EAF6
:1012300003011BD0937A03F0030309B143F00403C5
:1012400043F008039910013B91720D2B0BD8DFE896
:1012500003F021071B070A152121150A071B072187
:10126000D368013BD3605DF8044B7047937A03F079
:1012700003030029E6D043F00403E3E7D3685DF8F5
:10128000044B023BD3607047D3685DF8044B0233D4
:10129000D3607047D3685DF8044B0133D360704767
:1012A0006432FF1F214B10B4D3F8DC201368506860
:1012B00019780478507A137A044201EA03011BD0AA
:1012C000937A03F0030309B143F0040343F00803E6
:1012D0009910013B91720D2B0BD8DFE803F0210729
:1012E0001B070A152121150A071B0721D368013B9B
:1012F000D3605DF8044B7047937A03F00303002931
:10130000E6D043F00403E3E7D3685DF8044B023B07
:10131000D3607047D3685DF8044B0233D3607047E5
:10132000D3685DF8044B0133D36070476432FF1F0C
:10133000214B10B4D3F8E020136850681978047872
:10134000507A137A044201EA03011BD0937A03F026
:10135000030309B143F0040343F008039910013B70
:1013600091720D2B0BD8DFE803F021071B070A153C
:101370002121150A071B0721D368013BD3605DF8C3
:10138000044B7047937A03F003030029E6D043F03F
:101390000403E3E7D3685DF8044B023BD360704776
:1013A000D3685DF8044B0233D3607047D3685DF8AF
:1013B000044B0133D36070476432FF1F214B10B4DC
:1013C0005A6A1368506819780478507A137A04427C
:1013D00001EA03011BD0937A03F0030309B143F040
:1013E000040343F008039910013B91720D2B0BD8B5
:1013F000DFE803F021071B070A152121150A071B47
:101400000721D368013BD3605DF8044B7047937AA2
:1014100003F003030029E6D043F00403E3E7D368B5
:101420005DF8044B023BD3607047D3685DF8044B12
:101430000233D3607047D3685DF8044B0133D36047
:10144000704700BF6432FF1F214B10B49A6A1368C3
:10145000506819780478507A137A044201EA03013B
:101460001BD0937A03F0030309B143F0040343F064
:1014700008039910013B91720D2B0BD8DFE803F0A4
:1014800021071B070A152121150A071B0721D3680D
:10149000013BD3605DF8044B7047937A03F003037C
:1014A0000029E6D043F00403E3E7D3685DF8044B7A
:1014B000023BD3607047D3685DF8044B0233D360BE
:1014C0007047D3685DF8044B0133D360704700BFA9
:1014D0006432FF1F214B10B4DA6A13685068197820
:1014E0000478507A137A044201EA03011BD0937AFC
:1014F00003F0030309B143F0040343F00803991018
:10150000013B91720D2B0BD8DFE803F021071B077D
:101510000A152121150A071B0721D368013BD36057
:101520005DF8044B7047937A03F003030029E6D07B
:1015300043F00403E3E7D3685DF8044B023BD36058
:101540007047D3685DF8044B0233D3607047D368AB
:101550005DF8044B0133D360704700BF6432FF1F56
:10156000214B10B41A6B1368506819780478507ABC
:10157000137A044201EA03011BD0937A03F00303B8
:1015800009B143F0040343F008039910013B917241
:101590000D2B0BD8DFE803F021071B070A152121CB
:1015A000150A071B0721D368013BD3605DF8044B84
:1015B0007047937A03F003030029E6D043F0040355
:1015C000E3E7D3685DF8044B023BD3607047D36810
:1015D0005DF8044B0233D3607047D3685DF8044B69
:1015E0000133D360704700BF6432FF1F214B10B43A
:1015F0005A6B1368506819780478507A137A044249
:1016000001EA03011BD0937A03F0030309B143F00D
:10161000040343F008039910013B91720D2B0BD882
:10162000DFE803F021071B070A152121150A071B14
:101630000721D368013BD3605DF8044B7047937A70
:1016400003F003030029E6D043F00403E3E7D36883
:101650005DF8044B023BD3607047D3685DF8044BE0
:101660000233D3607047D3685DF8044B0133D36015
:10167000704700BF6432FF1F214B10B49A6B136890
:10168000506819780478507A137A044201EA030109
:101690001BD0937A03F0030309B143F0040343F032
:1016A00008039910013B91720D2B0BD8DFE803F072
:1016B00021071B070A152121150A071B0721D368DB
:1016C000013BD3605DF8044B7047937A03F003034A
:1016D0000029E6D043F00403E3E7D3685DF8044B48
:1016E000023BD3607047D3685DF8044B0233D3608C
:1016F0007047D3685DF8044B0133D360704700BF77
:101700006432FF1F214B10B4DA6B136850681978EC
:101710000478507A137A044201EA03011BD0937AC9
:1017200003F0030309B143F0040343F008039910E5
:10173000013B91720D2B0BD8DFE803F021071B074B
:101740000A152121150A071B0721D368013BD36025
:101750005DF8044B7047937A03F003030029E6D049
:1017600043F00403E3E7D3685DF8044B023BD36026
:101770007047D3685DF8044B0233D3607047D36879
:101780005DF8044B0133D360704700BF6432FF1F24
:10179000214B10B41A6C1368506819780478507A89
:1017A000137A044201EA03011BD0937A03F0030386
:1017B00009B143F0040343F008039910013B91720F
:1017C0000D2B0BD8DFE803F021071B070A15212199
:1017D000150A071B0721D368013BD3605DF8044B52
:1017E0007047937A03F003030029E6D043F0040323
:1017F000E3E7D3685DF8044B023BD3607047D368DE
:101800005DF8044B0233D3607047D3685DF8044B36
:101810000133D360704700BF6432FF1F214B10B407
:101820005A6C1368506819780478507A137A044215
:1018300001EA03011BD0937A03F0030309B143F0DB
:10184000040343F008039910013B91720D2B0BD850
:10185000DFE803F021071B070A152121150A071BE2
:101860000721D368013BD3605DF8044B7047937A3E
:1018700003F003030029E6D043F00403E3E7D36851
:101880005DF8044B023BD3607047D3685DF8044BAE
:101890000233D3607047D3685DF8044B0133D360E3
:1018A000704700BF6432FF1F214B10B49A6C13685D
:1018B000506819780478507A137A044201EA0301D7
:1018C0001BD0937A03F0030309B143F0040343F000
:1018D00008039910013B91720D2B0BD8DFE803F040
:1018E00021071B070A152121150A071B0721D368A9
:1018F000013BD3605DF8044B7047937A03F0030318
:101900000029E6D043F00403E3E7D3685DF8044B15
:10191000023BD3607047D3685DF8044B0233D36059
:101920007047D3685DF8044B0133D360704700BF44
:101930006432FF1F214B10B4DA6C136850681978B9
:101940000478507A137A044201EA03011BD0937A97
:1019500003F0030309B143F0040343F008039910B3
:10196000013B91720D2B0BD8DFE803F021071B0719
:101970000A152121150A071B0721D368013BD360F3
:101980005DF8044B7047937A03F003030029E6D017
:1019900043F00403E3E7D3685DF8044B023BD360F4
:1019A0007047D3685DF8044B0233D3607047D36847
:1019B0005DF8044B0133D360704700BF6432FF1FF2
:1019C000214B10B41A6D1368506819780478507A56
:1019D000137A044201EA03011BD0937A03F0030354
:1019E00009B143F0040343F008039910013B9172DD
:1019F0000D2B0BD8DFE803F021071B070A15212167
:101A0000150A071B0721D368013BD3605DF8044B1F
:101A10007047937A03F003030029E6D043F00403F0
:101A2000E3E7D3685DF8044B023BD3607047D368AB
:101A30005DF8044B0233D3607047D3685DF8044B04
:101A40000133D360704700BF6432FF1F214B10B4D5
:101A50005A6D1368506819780478507A137A0442E2
:101A600001EA03011BD0937A03F0030309B143F0A9
:101A7000040343F008039910013B91720D2B0BD81E
:101A8000DFE803F021071B070A152121150A071BB0
:101A90000721D368013BD3605DF8044B7047937A0C
:101AA00003F003030029E6D043F00403E3E7D3681F
:101AB0005DF8044B023BD3607047D3685DF8044B7C
:101AC0000233D3607047D3685DF8044B0133D360B1
:101AD000704700BF6432FF1F214B10B49A6D13682A
:101AE000506819780478507A137A044201EA0301A5
:101AF0001BD0937A03F0030309B143F0040343F0CE
:101B000008039910013B91720D2B0BD8DFE803F00D
:101B100021071B070A152121150A071B0721D36876
:101B2000013BD3605DF8044B7047937A03F00303E5
:101B30000029E6D043F00403E3E7D3685DF8044BE3
:101B4000023BD3607047D3685DF8044B0233D36027
:101B50007047D3685DF8044B0133D360704700BF12
:101B60006432FF1F214B10B4DA6D13685068197886
:101B70000478507A137A044201EA03011BD0937A65
:101B800003F0030309B143F0040343F00803991081
:101B9000013B91720D2B0BD8DFE803F021071B07E7
:101BA0000A152121150A071B0721D368013BD360C1
:101BB0005DF8044B7047937A03F003030029E6D0E5
:101BC00043F00403E3E7D3685DF8044B023BD360C2
:101BD0007047D3685DF8044B0233D3607047D36815
:101BE0005DF8044B0133D360704700BF6432FF1FC0
:101BF000214B10B41A6E1368506819780478507A23
:101C0000137A044201EA03011BD0937A03F0030321
:101C100009B143F0040343F008039910013B9172AA
:101C20000D2B0BD8DFE803F021071B070A15212134
:101C3000150A071B0721D368013BD3605DF8044BED
:101C40007047937A03F003030029E6D043F00403BE
:101C5000E3E7D3685DF8044B023BD3607047D36879
:101C60005DF8044B0233D3607047D3685DF8044BD2
:101C70000133D360704700BF6432FF1F214B10B4A3
:101C80005A6E1368506819780478507A137A0442AF
:101C900001EA03011BD0937A03F0030309B143F077
:101CA000040343F008039910013B91720D2B0BD8EC
:101CB000DFE803F021071B070A152121150A071B7E
:101CC0000721D368013BD3605DF8044B7047937ADA
:101CD00003F003030029E6D043F00403E3E7D368ED
:101CE0005DF8044B023BD3607047D3685DF8044B4A
:101CF0000233D3607047D3685DF8044B0133D3607F
:101D0000704700BF6432FF1F214B10B49A6E1368F6
:101D1000506819780478507A137A044201EA030172
:101D20001BD0937A03F0030309B143F0040343F09B
:101D300008039910013B91720D2B0BD8DFE803F0DB
:101D400021071B070A152121150A071B0721D36844
:101D5000013BD3605DF8044B7047937A03F00303B3
:101D60000029E6D043F00403E3E7D3685DF8044BB1
:101D7000023BD3607047D3685DF8044B0233D360F5
:101D80007047D3685DF8044B0133D360704700BFE0
:101D90006432FF1F214B10B4DA6E13685068197853
:101DA0000478507A137A044201EA03011BD0937A33
:101DB00003F0030309B143F0040343F0080399104F
:101DC000013B91720D2B0BD8DFE803F021071B07B5
:101DD0000A152121150A071B0721D368013BD3608F
:101DE0005DF8044B7047937A03F003030029E6D0B3
:101DF00043F00403E3E7D3685DF8044B023BD36090
:101E00007047D3685DF8044B0233D3607047D368E2
:101E10005DF8044B0133D360704700BF6432FF1F8D
:101E2000214B10B41A6F1368506819780478507AEF
:101E3000137A044201EA03011BD0937A03F00303EF
:101E400009B143F0040343F008039910013B917278
:101E50000D2B0BD8DFE803F021071B070A15212102
:101E6000150A071B0721D368013BD3605DF8044BBB
:101E70007047937A03F003030029E6D043F004038C
:101E8000E3E7D3685DF8044B023BD3607047D36847
:101E90005DF8044B0233D3607047D3685DF8044BA0
:101EA0000133D360704700BF6432FF1F214B10B471
:101EB0005A6F1368506819780478507A137A04427C
:101EC00001EA03011BD0937A03F0030309B143F045
:101ED000040343F008039910013B91720D2B0BD8BA
:101EE000DFE803F021071B070A152121150A071B4C
:101EF0000721D368013BD3605DF8044B7047937AA8
:101F000003F003030029E6D043F00403E3E7D368BA
:101F10005DF8044B023BD3607047D3685DF8044B17
:101F20000233D3607047D3685DF8044B0133D3604C
:101F3000704700BF6432FF1F214B10B49A6F1368C3
:101F4000506819780478507A137A044201EA030140
:101F50001BD0937A03F0030309B143F0040343F069
:101F600008039910013B91720D2B0BD8DFE803F0A9
:101F700021071B070A152121150A071B0721D36812
:101F8000013BD3605DF8044B7047937A03F0030381
:101F90000029E6D043F00403E3E7D3685DF8044B7F
:101FA000023BD3607047D3685DF8044B0233D360C3
:101FB0007047D3685DF8044B0133D360704700BFAE
:101FC0006432FF1F214B10B4DA6F13685068197820
:101FD0000478507A137A044201EA03011BD0937A01
:101FE00003F0030309B143F0040343F0080399101D
:101FF000013B91720D2B0BD8DFE803F021071B0783
:102000000A152121150A071B0721D368013BD3605C
:102010005DF8044B7047937A03F003030029E6D080
:1020200043F00403E3E7D3685DF8044B023BD3605D
:102030007047D3685DF8044B0233D3607047D368B0
:102040005DF8044B0133D360704700BF6432FF1F5B
:10205000214B10B4D3F880201368506819780478A5
:10206000507A137A044201EA03011BD0937A03F0F9
:10207000030309B143F0040343F008039910013B43
:1020800091720D2B0BD8DFE803F021071B070A150F
:102090002121150A071B0721D368013BD3605DF896
:1020A000044B7047937A03F003030029E6D043F012
:1020B0000403E3E7D3685DF8044B023BD360704749
:1020C000D3685DF8044B0233D3607047D3685DF882
:1020D000044B0133D36070476432FF1F214B10B4AF
:1020E000D3F884201368506819780478507A137AEA
:1020F000044201EA03011BD0937A03F0030309B100
:1021000043F0040343F008039910013B91720D2B37
:102110000BD8DFE803F021071B070A152121150A58
:10212000071B0721D368013BD3605DF8044B704760
:10213000937A03F003030029E6D043F00403E3E7B6
:10214000D3685DF8044B023BD3607047D3685DF8F9
:10215000044B0233D3607047D3685DF8044B0133FE
:10216000D36070476432FF1F214B10B4D3F888202E
:102170001368506819780478507A137A044201EA97
:1021800003011BD0937A03F0030309B143F0040366
:1021900043F008039910013B91720D2B0BD8DFE837
:1021A00003F021071B070A152121150A071B072128
:1021B000D368013BD3605DF8044B7047937A03F01A
:1021C00003030029E6D043F00403E3E7D3685DF896
:1021D000044B023BD3607047D3685DF8044B023375
:1021E000D3607047D3685DF8044B0133D360704708
:1021F0006432FF1F214B10B4D3F88C201368506851
:1022000019780478507A137A044201EA03011BD04A
:10221000937A03F0030309B143F0040343F0080386
:102220009910013B91720D2B0BD8DFE803F02107C9
:102230001B070A152121150A071B0721D368013B3B
:10224000D3605DF8044B7047937A03F003030029D1
:10225000E6D043F00403E3E7D3685DF8044B023BA8
:10226000D3607047D3685DF8044B0233D360704786
:10227000D3685DF8044B0133D36070476432FF1FAD
:10228000214B10B4D3F89020136850681978047863
:10229000507A137A044201EA03011BD0937A03F0C7
:1022A000030309B143F0040343F008039910013B11
:1022B00091720D2B0BD8DFE803F021071B070A15DD
:1022C0002121150A071B0721D368013BD3605DF864
:1022D000044B7047937A03F003030029E6D043F0E0
:1022E0000403E3E7D3685DF8044B023BD360704717
:1022F000D3685DF8044B0233D3607047D3685DF850
:10230000044B0133D36070476432FF1F214B10B47C
:10231000D3F894201368506819780478507A137AA7
:10232000044201EA03011BD0937A03F0030309B1CD
:1023300043F0040343F008039910013B91720D2B05
:102340000BD8DFE803F021071B070A152121150A26
:10235000071B0721D368013BD3605DF8044B70472E
:10236000937A03F003030029E6D043F00403E3E784
:10237000D3685DF8044B023BD3607047D3685DF8C7
:10238000044B0233D3607047D3685DF8044B0133CC
:10239000D36070476432FF1F214B10B4D3F89820EC
:1023A0001368506819780478507A137A044201EA65
:1023B00003011BD0937A03F0030309B143F0040334
:1023C00043F008039910013B91720D2B0BD8DFE805
:1023D00003F021071B070A152121150A071B0721F6
:1023E000D368013BD3605DF8044B7047937A03F0E8
:1023F00003030029E6D043F00403E3E7D3685DF864
:10240000044B023BD3607047D3685DF8044B023342
:10241000D3607047D3685DF8044B0133D3607047D5
:102420006432FF1F214B10B4D3F89C20136850680E
:1024300019780478507A137A044201EA03011BD018
:10244000937A03F0030309B143F0040343F0080354
:102450009910013B91720D2B0BD8DFE803F0210797
:102460001B070A152121150A071B0721D368013B09
:10247000D3605DF8044B7047937A03F0030300299F
:10248000E6D043F00403E3E7D3685DF8044B023B76
:10249000D3607047D3685DF8044B0233D360704754
:1024A000D3685DF8044B0133D36070476432FF1F7B
:1024B000214B10B4D3F8A020136850681978047821
:1024C000507A137A044201EA03011BD0937A03F095
:1024D000030309B143F0040343F008039910013BDF
:1024E00091720D2B0BD8DFE803F021071B070A15AB
:1024F0002121150A071B0721D368013BD3605DF832
:10250000044B7047937A03F003030029E6D043F0AD
:102510000403E3E7D3685DF8044B023BD3607047E4
:10252000D3685DF8044B0233D3607047D3685DF81D
:10253000044B0133D36070476432FF1FF8B5044683
:1025400015460E46084602210AF0C8F9284602211F
:102550000AF0C4F9984A994B52F83610012001F557
:1025600000772760207252F83520607202F50077FC
:1025700000206760E060013BFDD191F8003292F8E5
:10258000002203F00103D20744BF43F00203DBB291
:10259000A3723B2E00F20386DFE816F0F405EA058D
:1025A000E005D605CC05C205B805AE05A4059A051B
:1025B000900586057C05720568055E0554054A058B
:1025C000400536052C05220518050E050405FA04FC
:1025D000F004E604DC04D204C804BE04B304A80476
:1025E0009D04920487047C0428041E0414040A0435
:1025F0000004F603EC03E203D803CE03C403BA03DA
:10260000B003A6039C03920388037E0374036A034A
:1026100060033C006A4B6B49C3F8EC4004223B204A
:102620000AF0BAF8012323743B2D00F2B585DFE8E8
:1026300015F00B030103F702ED02E302D902CF020A
:10264000C502BB02B102A7029D02930289027F026A
:10265000310227021D0213020902FF01F501EB01FD
:10266000E101D701CD01C301B901AF01A5019B0172
:10267000910186017B01700165015A014F014401FE
:1026800039012E01230118010D010201F700EC00B0
:10269000E100B800AD00A20097008C008100760038
:1026A0006B00600055004A003C00454B4549C3F8AB
:1026B000EC4004223B200AF06FF8237C01221344F3
:1026C00023742046F8BD3E4B3F49C3F8E84004223E
:1026D0003A200AF061F8237C0122F0E7384B3B49AD
:1026E000C3F8E440042239200AF056F8237C012282
:1026F000E5E7334B3649C3F8E040042238200AF0BE
:102700004BF8237C0122DAE72D4B3249C3F8DC4039
:10271000042237200AF040F8237C0122CFE7284B1F
:102720002D49C3F8D840042236200AF035F8237C1E
:102730000122C4E7224B2949C3F8D44004223520A2
:102740000AF02AF8237C0122B9E71D4B2449C3F87B
:10275000D040042234200AF01FF8237C0122AEE787
:10276000174B2049C3F8CC40042233200AF014F858
:10277000237C0122A3E7124B1B49C3F8C840042263
:1027800032200AF009F8237C012298E70C4B174904
:10279000C3F8C4400422312009F0FEFF237C01224B
:1027A0008DE7074B1249C3F8C0400422302009F0DE
:1027B000F3FF237C012282E7C81E0100C0D4010080
:1027C0006432FF1F6D04000085050000F90400005D
:1027D00031130000A5120000191200008D11000035
:1027E0000111000075100000E90F00005D0F0000EE
:1027F000D10E0000AC4BAD49C3F8BC4004222F20E1
:1028000009F0CAFF237C012259E7A74BA849C3F866
:10281000B84004222E2009F0BFFF237C01224EE79E
:10282000A14BA449C3F8B44004222D2009F0B4FF01
:10283000237C012243E79C4B9F49C3F8B04004220C
:102840002C2009F0A9FF237C012238E7964B9B49F5
:10285000C3F8AC4004222B2009F09EFF237C012208
:102860002DE7914B9649C3F8A84004222A2009F08D
:1028700093FF237C012222E78B4B9249C3F8A440AB
:102880000422292009F088FF237C012217E7864BC8
:102890008D49C3F8A0400422282009F07DFF237C45
:1028A00001220CE7804B8949C3F89C400422272071
:1028B00009F072FF237C012201E77B4B8449C3F8B6
:1028C00098400422262009F067FF237C0122F6E6C7
:1028D000754B8049C3F894400422252009F05CFF21
:1028E000237C0122EBE6704B7B49C3F89040042225
:1028F000242009F051FF237C0122E0E66A4B77494E
:10290000C3F88C400422232009F046FF237C0122D7
:10291000D5E6654B7249C3F888400422222009F0AD
:102920003BFF237C0122CAE65F4B6E49C3F884401B
:102930000422212009F030FF237C0122BFE65A4BFC
:102940006949C3F880400422202009F025FF237C38
:102950000122B4E6544B6549DC6704221F2009F0CC
:102960001BFF237C0122AAE64F4B61499C6704228E
:102970001E2009F011FF237C0122A0E64A4B5D498D
:102980005C6704221D2009F007FF237C012296E6E4
:10299000454B59491C6704221C2009F0FDFE237C8D
:1029A00001228CE6404B5549DC6604221B2009F0CD
:1029B000F3FE237C012282E63B4B51499C660422B4
:1029C0001A2009F0E9FE237C012278E6364B4D49B6
:1029D0005C660422192009F0DFFE237C01226EE6EA
:1029E000314B49491C660422182009F0D5FE237C8E
:1029F000012264E62C4B4549DC650422172009F0CE
:102A0000CBFE237C01225AE6274B41499C650422D8
:102A1000162009F0C1FE237C012250E6224B3D49DD
:102A20005C650422152009F0B7FE237C012246E6EE
:102A30001D4B39491C650422142009F0ADFE237C8E
:102A400001223CE6184B3549DC640422132009F0CE
:102A5000A3FE237C012232E6134B31499C640422FD
:102A6000122009F099FE237C012228E60E4B2D4905
:102A70005C640422112009F08FFE237C01221EE6F3
:102A8000094B29491C640422102009F085FE237C8F
:102A9000012214E6044B2549DC6304220F2009F0CF
:102AA0007BFE237C01220AE66432FF1F450E0000F4
:102AB000B90D00002D0D0000A10C0000150C000048
:102AC000890B0000FD0A0000B1240000252400004D
:102AD000992300000D23000081220000F521000051
:102AE00069210000DD20000051200000C51F00000A
:102AF000391F0000AD1E0000211E0000951D0000C2
:102B0000091D00007D1C0000F11B0000651B00007A
:102B1000D91A00004D1A0000C11900003519000033
:102B2000A91800001D1800009117000005170000EB
:102B3000B34BB4499C6304220E2009F02DFE237C84
:102B40000122BCE5AE4BB0495C6304220D2009F0C4
:102B500023FE237C0122B2E5A94BAC491C6304226D
:102B60000C2009F019FE237C0122A8E5A44BA849FA
:102B7000DC6204220B2009F00FFE237C01229EE57B
:102B80009F4BA4499C6204220A2009F005FE237C85
:102B9000012294E59A4BA0495C620422092009F0C5
:102BA000FBFD237C01228AE5954B9C491C62042293
:102BB000082009F0F1FD237C012280E5904B984923
:102BC000DC610422072009F0E7FD237C012276E581
:102BD0008B4B94499C610422062009F0DDFD237C87
:102BE00001226CE5864B90495C610422052009F0C6
:102BF000D3FD237C012262E5814B8C491C610422B8
:102C0000104609F0C9FD237C012258E57C4B884918
:102C1000DC600422032009F0BFFD237C01224EE585
:102C2000774B84499C600422022009F0B5FD237C87
:102C3000012244E5724B80495C600422012009F0C6
:102C4000ABFD237C01223AE56D4B7C491C600422DC
:102C5000002009F0A1FD237C012230E5684B784972
:102C6000C3F8E84004223A2009F096FD0123DAE493
:102C7000634B7449C3F8E4400422392009F08CFD09
:102C80000123D0E45E4B7049C3F8E04004223820B1
:102C900009F082FD0123C6E4594B6C49C3F8DC40BE
:102CA0000422372009F078FD0123BCE4544B684925
:102CB000C3F8D8400422362009F06EFD0123B2E4A7
:102CC0004F4B6449C3F8D4400422352009F064FD19
:102CD0000123A8E44A4B6049C3F8D04004223420C1
:102CE00009F05AFD01239EE4454B5C49C3F8CC40F2
:102CF0000422332009F050FD012394E4404B58494D
:102D0000C3F8C8400422322009F046FD01238AE4BA
:102D10003B4B5449C3F8C4400422312009F03CFD28
:102D2000012380E4364B5049C3F8C04004223020D0
:102D300009F032FD012376E4314B4C49C3F8BC4025
:102D400004222F2009F028FD01236CE42C4B484974
:102D5000C3F8B84004222E2009F01EFD012362E4CE
:102D6000274B4449C3F8B44004222D2009F014FD38
:102D7000012358E4224B4049C3F8B04004222C20E0
:102D800009F00AFD01234EE41D4B3C49C3F8AC4059
:102D900004222B2009F000FD012344E4184B38499C
:102DA000C3F8A84004222A2009F0F6FC01233AE4E3
:102DB000134B3449C3F8A4400422292009F0ECFC49
:102DC000012330E40E4B3049C3F8A04004222820F0
:102DD00009F0E2FC012326E4094B2C49C3F89C408E
:102DE0000422272009F0D8FC01231CE4044B2849C5
:102DF000C3F898400422262009F0CEFC012312E4F7
:102E00006432FF1F79160000ED1500006115000007
:102E1000D514000049140000BD130000710A000021
:102E2000E509000059090000CD0800004108000034
:102E3000B5070000290700009D06000011060000EC
:102E400085050000F904000031130000A512000000
:102E5000191200008D110000011100007510000012
:102E6000E90F00005D0F0000D10E0000450E0000CC
:102E7000B90D00002D0D0000A10C0000150C000084
:102E8000890B0000FD0A0000B12400002524000089
:102E900099230000C34BC449C3F894400422252061
:102EA00009F07AFC0123FFF7BEBBBE4BBF49C3F854
:102EB00090400422242009F06FFC0123FFF7B3BBEC
:102EC000B84BBB49C3F88C400422232009F064FCB2
:102ED0000123FFF7A8BBB34BB649C3F888400422CF
:102EE000222009F059FC0123FFF79DBBAD4BB249ED
:102EF000C3F884400422212009F04EFC0123FFF78F
:102F000092BBA84BAD49C3F880400422202009F0B1
:102F100043FC0123FFF787BBA24BA949DC670422CE
:102F20001F2009F039FC0123FFF77DBB9D4BA5490C
:102F30009C6704221E2009F02FFC0123FFF773BBBE
:102F4000984BA1495C6704221D2009F025FC012350
:102F5000FFF769BB934B9D491C6704221C2009F0B5
:102F60001BFC0123FFF75FBB8E4B9949DC660422F3
:102F70001B2009F011FC0123FFF755BB894B954934
:102F80009C6604221A2009F007FC0123FFF74BBBC3
:102F9000844B91495C660422192009F0FDFB012352
:102FA000FFF741BB7F4B8D491C660422182009F0B6
:102FB000F3FB0123FFF737BB7A4B8949DC65042219
:102FC000172009F0E9FB0123FFF72DBB754B85495D
:102FD0009C650422162009F0DFFB0123FFF723BBC9
:102FE000704B81495C650422152009F0D5FB012353
:102FF000FFF719BB6B4B7D491C650422142009F0B7
:10300000CBFB0123FFF70FBB664B7949DC6404223D
:10301000132009F0C1FB0123FFF705BB614B754984
:103020009C640422122009F0B7FB0123FFF7FBBACE
:103030005C4B71495C640422112009F0ADFB012353
:10304000FFF7F1BA574B6D491C640422102009F0B8
:10305000A3FB0123FFF7E7BA524B6949DC63042263
:103060000F2009F099FB0123FFF7DDBA4D4B6549AD
:103070009C6304220E2009F08FFB0123FFF7D3BAD3
:10308000484B61495C6304220D2009F085FB012354
:10309000FFF7C9BA434B5D491C6304220C2009F0B9
:1030A0007BFB0123FFF7BFBA3E4B5949DC62042288
:1030B0000B2009F071FB0123FFF7B5BA394B5549D5
:1030C0009C6204220A2009F067FB0123FFF7ABBAD8
:1030D000344B51495C620422092009F05DFB012355
:1030E000FFF7A1BA2F4B4D491C620422082009F0BA
:1030F00053FB0123FFF797BA2A4B4949DC610422AD
:10310000072009F049FB0123FFF78DBA254B4549FC
:103110009C610422062009F03FFB0123FFF783BADC
:10312000204B41495C610422052009F035FB012355
:10313000FFF779BA1B4B3D491C610422104609F088
:103140002BFB0123FFF76FBA164B3949DC600422D1
:10315000032009F021FB0123FFF765BA114B354924
:103160009C600422022009F017FB0123FFF75BBAE1
:103170000C4B31495C600422012009F00DFB012356
:10318000FFF751BA074B2D491C600422002009F0BB
:1031900003FB0123FFF747BA0022FFF790BA002391
:1031A000FFF741BA6432FF1F0D23000081220000A7
:1031B000F521000069210000DD2000005120000001
:1031C000C51F0000391F0000AD1E0000211E0000B9
:1031D000951D0000091D00007D1C0000F11B000072
:1031E000651B0000D91A00004D1A0000C11900002B
:1031F00035190000A91800001D18000091170000E3
:103200000517000079160000ED150000611500009B
:10321000D514000049140000BD130000710A00001D
:10322000E509000059090000CD0800004108000030
:10323000B5070000290700009D06000011060000E8
:10324000002310B4104C4172026104600372C36029
:1032500041B1194600E0026942F82310427A013375
:103260009A42F8DC094B1A680AB90BE01A4653690E
:10327000002BFBD15061002343618380C3805DF844
:10328000044B70471860F6E77C1001008437FF1F7D
:1032900038B50446194B03600021012004F11802DF
:1032A0000B46607222612172E16000E0226942F8FF
:1032B0002310627A01339A42F8DC114B1A680AB97A
:1032C00019E01A465369002BFBD1546100250D49C2
:1032D0000D4A0E4B236320466561A580E580216081
:1032E00022629FED0B0A01F0B1FD47F6FF73E58501
:1032F000A385204638BD1C60E8E700BF7C100100B4
:103300008437FF1F4C130100E63C010082902C0023
:103310000000004430B5114B83B01B88019300EBD3
:10332000C000440010230D46009304F12001DC226C
:103330000B4805F0AFFC04F1220109B255B9094B65
:103340001B8801930C230093DE22054803F0DAFE6C
:1033500003B030BD044B1B88F3E700BF1A1AFF1FF0
:10336000F42EFF1F121AFF1F181AFF1FFFFFFFFF87
:103370002DE9F04F2DED068B8DB083011E460A938B
:10338000A94B079106F194041B88009323B21A46B7
:103390008946904611460B9320220E23A3489FEDA9
:1033A000A49ADFEDA48A9FEDA48A04F029FEA34B22
:1033B0009E48198806F0F6FCA14B9C481B88019397
:1033C0000F2306F1840100934222202305F062FCC2
:1033D000954B96481B8801930B23442206F18601E6
:1033E00000931C2303F08EFE20460CF07FFD07EEB9
:1033F000909AF8EEE77A064667EE897A0F4687EEEE
:10340000A87ACDE9086700250FF20C2BDBE900ABA9
:10341000B0EE49AA77EE087AF0EE689A17EE900AB5
:103420000CF076FD41EC100BB0EE489A41EC180B15
:103430000BF0D6F951EC100BB0EE480AF0EE680A2A
:10344000CDE904010BF02CFADDE9040100227D4BEB
:103450008DED020B0CF0B0FD32463B460CF0FAFB52
:103460000DF044F89DED020B744B1B88019304B2E0
:10347000002251EC100B734B0CF09EFD0022724B9E
:103480000CF0E8FB0DF032F800B200904146234604
:103490002022664804F0E0FD0FF28419D9E9008982
:1034A0001DE007EE905AF8EEE77A67EE8A7A87EE2B
:1034B000A97A77EE097A17EE900A0CF029FD41EC13
:1034C000100B41EC180B0BF08BF959EC108BB0EE94
:1034D000480AF0EE680A0BF0E3F95BEC10AB00224F
:1034E0005A4B404649460CF067FDDDE90867324615
:1034F0003B460CF0AFFB0022CDE90201534B504696
:1035000059460CF059FD00224F4B0CF0A3FB002252
:10351000CDE904014E4B404649460CF04DFD324684
:103520003B460CF097FB002206460F46484B5046A0
:1035300059460CF041FD0022434B0CF08BFB079ADF
:10354000EBB29A422CBF3D4B374B80468946304602
:1035500039461C880CF0CAFF0FFA80FADDE9040135
:103560000CF0C4FF07B2DDE902010CF0BFFF4946D1
:1035700006B2404601940CF0B9FF00B200905346E9
:103580003A4631460335294804F066FD662D88D158
:103590000B9E26482F4D00241523202231460094EF
:1035A00004F0B2FB1423202231462048009404F09A
:1035B000ABFB2B8800932022132331461B4804F0D9
:1035C000A3FB2B880093202231461E23174804F0CA
:1035D0009BFB079A092A06D94FF6F2734FF6F97446
:1035E000632A88BF1C460A9B10489A33E11844227C
:1035F00009B206F0BBFB184B0C48198806F0D2FB49
:1036000007990A4800230A220DB0BDEC068BBDE8DD
:10361000F04F0AF09DBC00BF6833B3D87AB6EB3FD9
:10362000AF08191B0000E0BF121AFF1FF42EFF1F86
:10363000DB0F494000007842920A0640181AFF1F2B
:103640001A1AFF1F00002A400000404000003440CA
:1036500000003C40141AFF1F101AFF1F2DE9F04113
:103660002DED068BA84E0024072CD4BFC4F1070112
:10367000C4F11701C9B2A54800F07CFD16F8013F5E
:10368000B0FA80F56D09AB42804618D0E7B23846F3
:103690002946FFF73FFEB8F1000F08D1032C06D8EA
:1036A000DFE804F0938F8B02994801F095FBC7F196
:1036B0000F01C9B22A469748357000F0F1FD013478
:1036C000102CD1D101219448944E954DDFED959A5F
:1036D0009FED95AA9FED959ADFED958A9FED958ACE
:1036E0000AF026F80024012C00F08D80022C70D105
:1036F000914A137C012B40F2698172B6D36862B69D
:10370000002BC0F2BF80B3F5C87F00F3A7809B10E9
:10371000DFB23278BA4227D0002C00F08D80012C25
:1037200019D11E3307EE903AF8EEE77AF5EEC07A3B
:10373000F1EE10FA00F1AD80F4EEE97AF1EE10FA54
:1037400000F39780B6EE007AA7EE8A7AFCEEC77A8D
:1037500017EE903A2B633946E0B2FFF709FE39467F
:10376000272009F0A7F837700134032C06F1010671
:10377000B9D11F24E0B209F0A3F8013401460023B7
:103780000A226E480AF0E4FB252CF3D1182009F038
:1037900097F8002301460A2268480AF0D9FB0A215B
:1037A000674809F0C5FF65480AF0C2FBBDEC068B0F
:1037B0000A20BDE8F04109F0BBB8624801F00CFBFB
:1037C00075E7574801F008FB71E75F4801F004FB1B
:1037D0006DE75E4A137C012B40F2C08072B6D3685D
:1037E00062B6002B47DBB3F5C87F90DD6427012C60
:1037F0003B464FF4C87143D0022C00F0388172B6BA
:10380000D16062B685E7524A137C012B43D972B668
:10381000D36862B6002B38DBB3F5C87F7FF777AF8C
:1038200064231F464FF4C87172B6D16062B6327815
:10383000BA427FF476AF97E707EE907AB8EE677AF0
:103840004448C7EE097AB0EE487AA7EEA87AFCEEB3
:10385000C77A17EE901A00F0A3FE7CE764274FF4B6
:10386000C87172B6D16062B63378BB427FF473AF71
:103870007AE7394B6EE70027012C3B463946BBD12E
:10388000334AD1E700273946EBE700231F461946A4
:10389000CAE700235EE772B61368506819780778A4
:1038A000507A137A074201EA030100F0D780937A35
:1038B00003F0030309B143F0040343F00803991034
:1038C000013B91720D2BA3D801A151F823F000BF49
:1038D000CB3A0000C33A0000BB3A0000C33A0000F4
:1038E00011380000B33A0000CB3A0000CB3A000098
:1038F000B33A000011380000C33A0000BB3A0000A0
:10390000C33A0000CB3A00009F2FFF1FEC2FFF1F90
:10391000EC30FF1FE82FFF1F80100100182FFF1F42
:103920006830FF1FA655AC464B243E470000C842F6
:1039300000000143EE7CFF3EE02EFF1FD025FF1F5D
:1039400084100100A030FF1F3030FF1F8C2FFF1F9D
:10395000D830FF1F2431FF1FC0FFFF3F72B613682E
:10396000506819780778507A137A074201EA030100
:103970006CD0937A03F0030309B143F0040343F0DE
:1039800008039910013B91720D2B3FF628AF01A15E
:1039900051F823F0AB3A0000A33A00009B3A000034
:1039A000A33A0000DF370000933A0000AB3A000072
:1039B000AB3A0000933A0000DF370000A33A000062
:1039C0009B3A0000A33A0000AB3A000072B61368BD
:1039D000506819780778507A137A074201EA030190
:1039E0002CD0937A03F0030309B143F0040343F0AE
:1039F00008039910013B91720D2B3FF67FAE01A198
:103A000051F823F08B3A0000833A00007B3A000023
:103A1000833A0000FD360000733A00008B3A000044
:103A20008B3A0000733A0000FD360000833A000034
:103A30007B3A0000833A00008B3A0000937A03F04F
:103A400003030029D5D043F00403D2E7937A03F0AF
:103A50000303002995D043F0040392E7937A03F01F
:103A6000030300293FF42BAF43F0040327E7194A6F
:103A7000F7E6D368023BD36041E6D3680233D360F4
:103A80003DE6D368013BD36039E6D3680133D360A8
:103A900035E6D368023BD360A2E6D3680233D36035
:103AA0009EE6D368013BD3609AE6D3680133D360C6
:103AB00096E6D368023BD360ABE6D3680233D360AB
:103AC000A7E6D368013BD360A3E6D3680133D36094
:103AD0009FE600BFE02EFF1F2DE9F04F1D2285B0AD
:103AE0001E218C488C4DFEF729FD1B221C218B4882
:103AF000FEF724FD19221A218948FEF71FFD072130
:103B00000E220C238DE80E008648FF231422152177
:103B100003F01EF88448FFF7BBFB8448FFF7B8FBAF
:103B20008348FFF7B5FB8348FFF7B2FB824B1A6867
:103B3000824B2B6000236B722B612B72EB600AB9F6
:103B4000E3E01A465369002BFBD155617C4EDFF848
:103B50002CB27C4A7048DFF828822A604FF00009B6
:103B6000C5F81490A5F80490A5F80690C5F818902B
:103B7000C5F81C90C5F82090A5F8249001F092F8A3
:103B800006F12802042130464FF48037FFF758FB36
:103B90006D4CDFF8F0A1C6F800A00BF1280204215B
:103BA0005846B761F76137627762FFF749FB08F162
:103BB000280204214046CBF800A0CBF81870CBF8BF
:103BC0001C70CBF82070CBF82470FFF739FB4FF056
:103BD000020E04F11801594B84F809E04A46C8F86E
:103BE00000A0C8F81870C8F81C70C8F82070C8F891
:103BF00024704846236084F80890C4F80C90216132
:103C0000A64601E0DEF8101041F82200637A4E4F1C
:103C100001329342F6DC484B196809B978E019463D
:103C20004B69002BFBD14C610027484A4648226073
:103C30006761A780E78000F021FF454A3A49177283
:103C40004FF0010910465660D760116082F8099064
:103C500009F06EFF3F4A3548106002211046177286
:103C60005660D760517209F063FF3B4A30491772C2
:103C7000104656605772D760116009F059FF374AF5
:103C80002C48106003211046517217725660D7609D
:103C900009F04EFF324A1046177282E82008577228
:103CA000D76009F045FF2F4A1046177282E840019D
:103CB0005772D76009F03CFF2B4A10461772C2F8C2
:103CC00000B0C2F8048082F80990D76009F030FF94
:103CD000264B18461F72C3F800805C605F72DF607D
:103CE00009F026FF224B184683F80990C3F800809C
:103CF0005C601F72DF6009F01BFF1E4B1E4A1A60DA
:103D00000A221A7205B0BDE8F08F0B4B1D601DE74B
:103D10001F6089E78C2FFF1F3031FF1FD830FF1F36
:103D2000E02EFF1FF42EFF1F6830FF1FA030FF1F83
:103D30003030FF1FEC30FF1F8437FF1F7C10010065
:103D4000B02FFF1F401301001030FF1F341301007C
:103D50001C2FFF1F2C2FFF1F3C2FFF1F4C2FFF1F5F
:103D60005C2FFF1F6C2FFF1FF02FFF1F7C2FFF1FEB
:103D70000030FF1F2431FF1F0C1301006431FF1FAF
:103D80009C31FF1F28130100124B1B7810B504460D
:103D900083B909F0A3FC00280BDD20460CF050FF8E
:103DA0000146204609F0C4FC0B48BDE810400AF06B
:103DB000BFB810BD094805F0F5FF20460CF040FFE4
:103DC0002146024605480AF09FF804480AF0B0F878
:103DD000DFE700BF161AFF1FD025FF1FF42EFF1FBD
:103DE0002DE9F843A94C40F6B831204608F0D6F941
:103DF0002046A7494FF4165208F0AAF9204601219F
:103E000008F080F9002840F03381A24C9F4801223D
:103E1000002108F08BFA204603F0B0FD2046012176
:103E200003F03CFB2046002103F014FD2046002156
:103E300003F026FB984BA3612046002103F068FCA9
:103E40004FF4FC619548FFF79FFF0024E0B200218A
:103E50000134FFF75FFA102CF8D10021904800F0F0
:103E6000F1F901218F4800F0EDF90024E5B229466F
:103E700000228B4800F0CEF90134294601228848FF
:103E800000F0D6F9102CF1D100240122E1B28548CE
:103E9000144400F0BFF9102CF7D101220021814811
:103EA000814D824EDFF87082814F00F0C1F94FF4EE
:103EB000FC618048FFF768FF02211F2008F00EFD1B
:103EC0000221202008F00AFD0221212008F006FD31
:103ED0000221222008F002FD0221232008F0FEFC2E
:103EE0000221242008F0FAFC0221182008F0F6FC38
:103EF00001210D2008F0F2FC0121272008F0EEFC42
:103F000001210F2008F0EAFC0121082008F0E6FC5E
:103F100015242B78002B00F09B8033789B0700F052
:103F20009780D8F800303A689B1A182B40F290809E
:103F3000322008F0FDFC09F0D1FB0028C6BF4FF489
:103F4000FC615D485D485E4FDFF8D0915D4E5E4D8F
:103F50005E4CD8BF4FF47841FFF716FF00210D20CB
:103F600008F0A8FC0F215A4809F0E6FC594BC7F8A5
:103F700030904FF00108C3F8008047F6C2633B62FF
:103F800038469FED550A00F031FF38469FED530A41
:103F900000F05CFF524B336230469FED4F0AC6F88B
:103FA000309000F023FF3046B7EE000A00F04EFFDD
:103FB0004C4A4D4B2A632B622846B7EE000A00F0AC
:103FC00015FF2846B6EE000A00F040FF474A484B6E
:103FD0002263236220469FED400A00F007FF9FED19
:103FE0003E0A204600F032FF424800F027FA4D21F9
:103FF000404800F0D5FA72B63F4BF022DA6062B664
:104000003E4B3F48C3F80080072107F0CFFF0E2149
:104010003B4808F027F84FF4FC613A48FFF7B4FE3C
:104020000A21394805F0C2FEE0B94FF4784137481B
:10403000FFF7AAFE00210846FFF79AF900210120A8
:10404000FFF796F900210220BDE8F843FFF790B989
:10405000631E13F0FF044FF032003FF469AF08F025
:1040600067FC56E74FF4FC612948FFF78DFEE1E756
:10407000606C2849036811225B68984720460A2132
:1040800008F02EF8204608F061F8BEE63436FF1F2F
:10409000D025FF1FF42EFF1F90140100A410010073
:1040A000EC2FFF1FE82FFF1F6837FF1F8037FF1F10
:1040B000743BFF1FB0100100BC100100CC100100C8
:1040C0003030FF1F6830FF1FA030FF1FEC30FF1F94
:1040D0000002FF1F88E100E000000000CDCC0C3F93
:1040E000CC790200FA81980157DB0100204A7B035A
:1040F000B2F304002431FF1F8C2FFF1F08E100E002
:10410000D023FF1FDC100100B433FF1FF4100100A7
:10411000E8100100901001008436FF1F82902C00EF
:1041200070B5134C037882B006460D46204643F026
:10413000200101F001FB29462046002500F0EAFE9F
:10414000627B216900952046012301F097FD3278BA
:10415000617B20690195012342F02002009301F068
:10416000B5FD206901F0CCFDC0B202B070BD00BF4A
:104170006433FF1F08290B4610B534BF12211321E9
:1041800003F00704FFF7CCFF204100F0010010BD51
:1041900070B50E4C037882B00E46204643F02001E5
:1041A000154601F0C9FA3146204600F0B3FE294613
:1041B000204600F0AFFE00230093627B2169204679
:1041C000012301F05BFD02B070BD00BF6433FF1F2F
:1041D000F8B59DF81840072998BF1C460D462146A2
:1041E000174605F007050646FFF79AFF0122AA4089
:1041F00047B920EA020221463046D2B2BDE8F84073
:10420000FFF7C6BF024321463046D2B2BDE8F840B0
:10421000FFF7BEBF00B583B00123B2FA82F200936C
:1042200052090023FFF7D4FF03B05DF804FB00BF81
:1042300000B583B00D2300930C23FFF7C9FF03B033
:104240005DF804FB2DE9F041072928BF0721124B37
:1042500001705F7BD3F8108086B00546384600F0C9
:10426000CFFF002401260D4B0190394640460393B1
:104270002246234604960294009401F047F9214611
:104280002846FF22FFF784FF31462846FF2206B06A
:10429000BDE8F041FFF77CBF6433FF1FA08601003B
:1042A0000829F8B50C4634BF1421152117460546D8
:1042B00004F00706FFF734FF012303FA06F257B1B3
:1042C0000243D2B2082C284634BF12211321BDE884
:1042D000F840FFF75DBF20EA0202D2B2F2E700BF6A
:1042E0002DE9F04F00F5807EB1E8A00AB2E8401554
:1042F000C5EA0643C6EA2544C7EA0845C8EA274690
:10430000C9EA0A47CAEA2948CBEA0C49CCEA2B4A4F
:10431000A0E8F8078645E7D1BDE8F04F70474FF0B9
:1043200000022DE9F00F00F5807C00BFB1E8A00A83
:10433000C5EA0203C2EA2544C7EA0205C2EA2746E3
:10434000C9EA0207C2EA2948CBEA0209C2EA2B4AB3
:10435000A0E8F8078445E9D1BDE8F00F70474FF0B9
:1043600000022DE9F00F00F5807C00BFB1E8A00A43
:10437000C2EA0543C2EA0504C2EA0745C2EA0706E3
:10438000C2EA0947C2EA0908C2EA0B49C2EA0B0AB3
:10439000A0E8F8078445E9D1BDE8F00F70472DE9A2
:1043A000F00F089C00F5007B51F8045B53F8046B98
:1043B000C5EA0647C6EA254952F8045B54F8046B7F
:1043C000C5EA0648C6EA254AA0E880078345EBD13E
:1043D000BDE8F00F704700BF002070470020704715
:1043E00070B5154C242908BFC28082B00D46017AF1
:1043F0002046164601F0A0F9C5F30721204600F03B
:1044000089FDE9B2204600F085FDC6F3072120466C
:1044100000F080FDF1B2204600F07CFD0023009307
:10442000627B21692046012301F028FCB0FA80F06C
:10443000400902B070BD00BF8C33FF1F2DE9F04171
:104440003E4B012606715F7BD3F8108086B0044690
:10445000384600F0D5FE0025394B019039462A46F2
:104460004046039304962B460295009501F04EF8C2
:10447000052008F05DFA204644F260023021FFF783
:10448000AFFF20466C222621FFF7AAFF20464FF4FB
:10449000F9722821FFF7A4FF204640F622722C2152
:1044A000FFF79EFF204644F246423C21FFF798FF6B
:1044B000204640F237122421FFF792FF204644F2B3
:1044C000FF023021FFF78CFF732202212046FFF705
:1044D00087FF4FF4C87008F02BFA204641F61D52B2
:1044E0002E21FFF77DFF042211462046FFF778FFBB
:1044F00020464FF498720621FFF772FF20461022E3
:104500000A21FFF76DFF2A4620460E21FFF768FFBC
:10451000204643F63C421021FFF762FF204647F653
:104520007F722221FFF75CFF204636222421FFF70D
:1045300057FF3046667206B0BDE8F0818C33FF1F2E
:10454000A086010010B5044619B1012911D0002040
:1045500010BD55222021FFF743FF0028F7D0E28845
:1045600042F00402204692B22421BDE81040FFF739
:1045700037BF40F273122A21FFF732FF0028E6D03E
:10458000882220212046FFF72BFF0028DFD0E28879
:10459000204622F004022421BDE81040FFF720BF8E
:1045A00038B50546F1B1802903799ABFC1F180047D
:1045B00044EA0424002433B9224628462221BDE8D7
:1045C0003840FFF70DBFC288002322F010020371AC
:1045D0002421FFF705FF224628462221BDE8384066
:1045E000FFF7FEBE0123037147F67F722221FFF71A
:1045F000F7FEEA8842F01002284692B22421BDE874
:104600003840FFF7EDBE00BF9FED057ADFED057A7C
:10461000E0EE077AFCEEE77A17EE901AFFF7C0BFDC
:1046200000000143EE7CFF3E10B5044609F058FB44
:10463000204610BD024A034903480BF07FBF00BF6C
:104640000C1AFF1F29460000D431FF1F38B5074D53
:10465000074C08482A4621460BF070FF2A4621469F
:104660000548BDE838400BF069BF00BF0C1AFF1FBA
:1046700029460000DC31FF1FE431FF1F024A0349D5
:1046800003480BF05BBF00BF0C1AFF1F2946000058
:10469000EC31FF1F024A034903480BF04FBF00BF34
:1046A0000C1AFF1F29460000F431FF1F024A03497C
:1046B00003480BF043BF00BF0C1AFF1F2946000040
:1046C000FC31FF1F2DE9F8434FF00008064600F1CA
:1046D0001805474641463046002F4FD009F0FAF9F9
:1046E000F0B12C68B4F5803F07F1040100F1040E2D
:1046F00007F5827C27D05EF8042B34FB02F334FBF1
:1047000012F903F30F0209F30F03C2EA03430A6825
:1047100093FA12F341F8043B8C45ECD809F096F972
:1047200008F10108B8F1040F05F10405D2D1002FFA
:1047300040D030463946002209F0B2F93846BDE88B
:10474000F84309F083B907F10C0100F10C0451F8AA
:10475000083C54F8082C93FA12F341F8083C54F83A
:10476000042C51F8043C93FA12F38C4541F8043CB4
:1047700004F1080401F10801E9D8CFE709F0B6F91E
:1047800007460028CCD02868B0F5803FC8D0391D36
:1047900007F582740B6830FB03F230FB13F302F36E
:1047A0000F0203F30F03C2EA034341F8043B8C42B8
:1047B000F0D8B5E7BDE8F883024A034903480BF097
:1047C000BDBE00BF0C1AFF1F294600000432FF1FA8
:1047D000024A034903480BF0B1BE00BF0C1AFF1F89
:1047E000294600000C32FF1F2DE9F84F344B3548A5
:1047F0001A68354912681B790B70824229D2334BF3
:104800001B784BBBDFF8D4A0DFF8D490DFF8D4805E
:10481000DFF8D4B0DAF80060D9F80070B8F80040DA
:10482000BBF80050002E3BD09FB33A1D311D02EB68
:10483000450201EB4401FFF753FD403540347F2C26
:104840001BD8A8F800407F2D0AD8ABF80050BDE86F
:10485000F88FA0F58070D5E71D4B01221A60D1E7D3
:1048600000243846ABF8004009F0F0F8194B1A68FC
:10487000C9F800201C60BDE8F88F00243046A8F875
:10488000004009F0E3F8144B1A68CAF800201C60D5
:10489000D9E7311D01EB4401FFF741FD4034CEE77C
:1048A00037B1391D01EB4501FFF759FD4035C6E72A
:1048B00039464FF48072BDE8F84F0CF041B900BFA3
:1048C0001832FF1F3C12FF1F1F8000403032FF1FB5
:1048D00008E200E02C32FF1F3432FF1F2832FF1F96
:1048E0002032FF1F1432FF1F2432FF1F70B500213A
:1048F000044609F0EFF880B172B61C4A1368002B29
:1049000029D01B490D6805B31A4E156000220860B6
:10491000328062B6184609F099F82046012109F064
:10492000D9F888B172B6144A1368CBB113490C6830
:1049300074B1134D1460002208602A8062B61846D4
:10494000BDE8704009F082B870BD086062B6E4E767
:10495000086062B670BD074910600B8062B6DCE784
:10496000074910600B8062B670BD00BF2832FF1F80
:104970003432FF1F1432FF1F2032FF1F2C32FF1F63
:104980002432FF1F284B29491A68294842F4004263
:104990001A600A6842F002020A601A6842F00202D3
:1049A0001A600368002B3EDB224B1B68002B3ADBAE
:1049B000214A4FF0804313601368002BFCDBF0B5F5
:1049C0001E4C1F48DFF8A8E01E491F4B1F4A204F0E
:1049D000204E214D4FF2FE0CC4F800C000240460AC
:1049E0000120CEF80000DFF88CE0C1F800E04FF4C1
:1049F00080311960194B1360DFF87CE0184A3A6087
:104A00003460286000F18E40CEF80000154CB96784
:104A10001548164946F8503C4FF4C0632A6123609C
:104A200003600B60F0BD70473C8004404080044050
:104A300000F0024080F0024000F1024004F1024028
:104A400060F0024008F002400CF0024010F002401A
:104A500014F00240E0F0024084F002401B1F01000D
:104A6000001F1F1F08B004400CB0044018B00440E1
:104A700004F002400100000788F00240F8B5274C1E
:104A8000274E2046012109F0C5F8264A264B00256D
:104A900015601D60FFF776FF244B254A25494FF42A
:104AA000C0601860236802201A609880227919611A
:104AB00002F1804202F5043240F20117DF80DE602D
:104AC0004FF4807106278D26D9829D82D9839D61FE
:104AD0009F8398601570167009F042F82279164B82
:104AE0001649187053119B00174603F160430F706D
:104AF000134D144E144C02F11000012103F56143D3
:104B000002F01F0201FA02F24FF080770F492F6086
:104B10002C6046F820101A60F8BD00BF1832FF1F45
:104B200000FEFFFF2832FF1F2032FF1F04B00440A9
:104B30003C11FF1F22F002403032FF1F1B8000405B
:104B400000F002400014FF1F01000090E947000040
:104B5000024A034903480BF0F1BC00BF0C1AFF1FC7
:104B6000294600001832FF1F024A034903480BF090
:104B7000E5BC00BF0C1AFF1F294600003832FF1F9A
:104B8000024A034903480BF0D9BC00BF0C1AFF1FAF
:104B9000294600004032FF1F024A034903480BF038
:104BA000CDBC00BF0C1AFF1F294600004832FF1F72
:104BB000024A034903480BF0C1BC00BF0C1AFF1F97
:104BC000294600005032FF1F024A034903480BF0F8
:104BD000B5BC00BF0C1AFF1F294600005832FF1F4A
:104BE00090F8303003B9704770B5054608F0DAFE2A
:104BF0000646002850D0EB69296A8B4227D901F577
:104C00008072934238D2A8695C1A22460844311D4A
:104C100006F028FD2B6AEA6A1919630822447F2BE3
:104C20002962EA6209D806EB4303023306F5817173
:104C3000002223F8022F8B42FBD128463146002266
:104C400008F02EFF3046BDE8704008F0FFBE134A62
:104C500013885BB94021124807F042F9002385F818
:104C600030303046BDE8704008F0F0BE013B9BB2EA
:104C70001380002BF2D1EDE7A8694FF4807208444D
:104C8000311D06F0EFFC2A6AEB6A02F5807203F52B
:104C900080732A62EB62D0E770BD00BF6032FF1FF5
:104CA000D023FF1F002380F830308362C362704737
:104CB0002DE9F04F83B0064608F074FE01900028FD
:104CC00000F0848000F58279031DB6F92E10009162
:104CD000994565D9871DDFF8FCE008E04FF0000337
:104CE00027F8023C3B46994507F1020758D9F3697A
:104CF0004FF6FE729342F1DD326A9B1AF36113FBA9
:104D000033F3716B306B491033FB01F18913C2002F
:104D100032FB01F1726A02440A4422F000424FEA77
:104D2000D25CC2F3CF147262009A322A0CF1010AEB
:104D300042DDB26A3EF91C503EF91AC0024402EB51
:104D40005000084400EB610121F00041CA0D02F15E
:104D500001083EF912003EF91820B162121AC1F39F
:104D6000CF1101FB02F2C5EB0C0CB6F92E10B6F90F
:104D70002C8004FB0CFC00EB224205EB2C4C01FBCD
:104D800002F208FB0CFCD21302EBEC3833FB08F305
:104D9000DB1327F8023C3B46994507F10207A6D8EA
:104DA000019C30460022214608F07AFE204603B0DE
:104DB000BDE8F04F08F04ABE3EF91C203EF91A103B
:104DC000891A04FB01F802EB2848DFE703B0BDE8CD
:104DD000F08F00BF0011010072B6034BC3610023C6
:104DE0004362836262B670470000FF7FB5EEC00A7F
:104DF000F1EE10FA0FD4F7EE007AB4EEE70AF1EE16
:104E000010FA0CDD4FF4804343F6FF7272B6C28590
:104E1000838562B6704747F6FF730022F6E7DFED41
:104E20000A7A20EE270A82B0FDEEC07ACDED017A33
:104E3000BDF90420C2F5FF437F331BB272B6C285B1
:104E4000838562B602B0704700FC7F46B5EEC00AAB
:104E5000F1EE10FA0AD4F7EE007AB4EEE70AF1EEBA
:104E600010FA06DD4BF6FD73436370470E4B436348
:104E70007047DFED0E7A20EE270AFDEEC07A17EEBE
:104E8000903AB3F5804F08DAC3F5804303EB430350
:104E900043F391035B4243637047A3F5804303EB05
:104EA000430343F31103DFE700D0FFFF00FEFF469B
:104EB00000207047704700BF0369D3F83801D3F86A
:104EC0003431C01A704700BF0369D3F83411D3F8E6
:104ED0003821914208D2D3F83421511C1A44C3F826
:104EE000341192F8300070474FF0FF30704700BF28
:104EF0000369D3F83411D3F8382191423DBFD3F878
:104F000034219B1893F830004FF0FF30704700BFFA
:104F1000704700BF0369D3F84422B2F5817F03D9FB
:104F20000123037100207047D3F8442210B49C1869
:104F30000132C3F8442284F83C1101205DF8044B8F
:104F4000704700BF38B503690A4A026093F84822E7
:104F5000022A044601D0204638BDD3F86452002D01
:104F6000F9D0284608F0BCFE2846082108F0CAFF00
:104F7000204638BD5813010038B503690546D3F8FB
:104F80004402B0F5817F1AD81446D3F84422D3F8EE
:104F90004402C2F58172013203F59E73A2421844A5
:104FA00002D2012314462B71224607F0EDF92A693B
:104FB000D2F844322344C2F84432204638BD01239B
:104FC0002B71002038BD00BF2DE9F04F83B0002BBE
:104FD00040F2645540F2647440F2035740F20378A3
:104FE00040F2032602BF2F46A0464FF419769DF8E3
:104FF00030E041B9541EE4B2052C20D98946484618
:1050000003B0BDE8F08F012930D1052A38D1894697
:105010000C46924605469B46BEF1000F1CD090F808
:105020004B2290F84A32002A0CBF00220222072BA2
:1050300012D8DFE803F0B876818C97A2AD6B5F4D94
:1050400015F80490B9F1000FD9D00C4692460546E8
:105050009B46BEF1000FE2D14CBB0AF1FF33052B9A
:105060001DD8DFE803F04C47423D1C38022903D12C
:1050700032B94FF00109CBE7032901D1072AF8D053
:105080004FF00009484603B0BDE8F08F032C06D16D
:10509000BAF1070F03D14A4A4A4B16601E604846D0
:1050A00085F84AA285F84BB203B0BDE8F08F012C19
:1050B00007D1BAF1050FF2D1434A444B16601E6086
:1050C000EDE7022CE2D1BAF1000FE8D1404A414BA2
:1050D00017601F60E3E7404A404B16601E60DEE742
:1050E0003F4A404B17601F60D9E73F4A3F4B16606D
:1050F0001E60D4E73E4A3F4B16601E60CFE73E4A33
:105100003E4BC2F80080C3F80080C8E71146382043
:10511000019207F0E3FB019A3920114607F0DEFB0C
:105120009AE711460820019207F0D8FB019A072060
:10513000114607F0D3FB8FE711461120019207F0CB
:10514000CDFB019A1020114607F0C8FB84E71146F9
:105150001220019207F0C2FB019A1320114607F0BA
:10516000BDFB79E711462220019207F0B7FB019AB7
:105170002120114607F0B2FB6EE71146262001926E
:1051800007F0ACFB019A2520114607F0A7FB63E767
:1051900011463020019207F0A1FB019A2F20114601
:1051A00007F09CFB58E711460420019207F096FB9C
:1051B000019A0320114607F091FB4DE7741301009B
:1051C00028D004402CD004402CB0044028B0044027
:1051D000349004403090044024C0044020C0044077
:1051E00064D0044060D004400CA0044008A00440F7
:1051F00004A0044000A004400CC0044008C00440C7
:10520000032806D0022806D001280CBF0520032061
:105210007047072070470020704700BFF8B5C3688B
:105220001B789B0610D483680D4680211970C368D3
:105230001221197090F84932012B044606D08AB920
:1052400080F848220120F8BD0020F8BD1A4675B943
:10525000794B4FF080711960022A0FD0012084F839
:105260004802F8BD531E012BF1D90120F8BD012DD4
:105270004BD1714B4FF000711960EDE7D4F86462C7
:10528000002E00F097803379202B30D0002D43D1B1
:1052900032686A49938B6A4F9BB243F00803938349
:1052A0003279531102F110009B0041F8207003F194
:1052B000604303F56143012102F01F0201FA02F28B
:1052C00031681A608B8B9BB243F002038B83337976
:1052D00003F1804303F5043392221D701A700022FB
:1052E000022384F85A2284F848320120F8BD30465F
:1052F00008F0F6FC3046082108F004FE00230120E7
:10530000C4F8643284F84802F8BD022D5DD14D4BDB
:105310004FF4806119609FE7012D26D1326847491B
:10532000938B494F9BB243F0080393833279531117
:1053300002F110009B0041F8207003F1604303F577
:10534000614302F01F02954032681D60938B9BB24F
:1053500043F002039383337903F1804303F504336D
:105360000021932219701A70B9E7022D35D1D4F8B3
:10537000641232480A68354E938B9BB243F008039F
:1053800093830A79531102F110059B0040F82560C0
:1053900003F1604303F56143012002F01F0200FAAC
:1053A00002F208681A60838B9BB243F00203838386
:1053B0000B79D1E7082008F0A3FD314607463E46A9
:1053C00008F028FCC4F864725DE7032D7FF444AF55
:1053D0001C4B4FF0006119603EE7032D7FF47FAF57
:1053E000D4F8641215480A68194E938B9BB243F0A7
:1053F000080393830A79531102F110059B0040F8CA
:10540000256003F1604303F56143012002F01F02B0
:1054100000FA02F208681A60838B9BB243F0020321
:1054200083830B7903F1804303F504330021922237
:1054300019701A7053E700BF00E100E00014FF1F6D
:105440008962000008E100E095620000A1620000AE
:10545000AD620000F0B5284EDFF8ACE0A6FB0143DA
:10546000A6FB02429E0937027546960914240023C2
:10547000B7FBF6F604E00133372B1BD055F8044F89
:1054800022029642F7DA83BB14241C4A4568B1FB1A
:10549000F4F491422B70C0F84C4207D8184B826943
:1054A000A3FB0131C1F307511170F0BD83690422E0
:1054B0001A70F0BD002422464FF470274FF4706537
:1054C0004FF0360CB21AF71B002A87EAE776A6EBF4
:1054D000E776B8BF5242964202DD0A4AD35CD4E76F
:1054E000084B2C4613F80C30CFE703F1FF3C5EF875
:1054F0002C502F02E6E700BFD34D6210FF6BDC0299
:10550000819F5E16581401007C130100F0B583B032
:1055100004469DF824709DF820009DF828E09DF831
:1055200030600D4679BBDFF8FCC0DCF8001041F0BC
:105530004001CCF80010002184F8492284F851126F
:1055400092BB63692021197023681A70E3691A708D
:10555000002173463A46009120462946FFF734FD64
:105560000B9A2F492046FFF775FF32462946204601
:10557000FFF754FE94F84932002B38D0A368C022BC
:105580001A7003B0F0BD012926D1DFF898C0DCF80D
:10559000001041F08001CCF80010002184F849226D
:1055A00084F85112002ACCD0626960B128211170B0
:1055B0008342226820D25B00DBB213704000E369B3
:1055C000C0B21870C4E7202111705B002268D9B204
:1055D0001170E3691870BBE7022915D1DFF848C0E4
:1055E000DCF8001041F04001CCF80010A3E7A368FC
:1055F00080221A7003B0F0BD4000C0B21070580095
:10560000E369C0B21870A3E7032994D1DFF818C08A
:10561000DCF8001041F08001CCF800108BE700BFEF
:105620000087930334800440288004402DE9F04132
:10563000154604460F46984607F056F90DB9D4F8BA
:10564000685207F051F9A3681A789206064609D500
:10565000B4221A7094F84832013B012B23D901205F
:10566000BDE8F081CDB9E3681B7803F0200303F0B7
:10567000FF02002BF6D1A36884F84922B0221A70E9
:10568000A3681B7803F0200303F0FF00002BE1D197
:10569000042384F85132BDE8F08107F025F9801B1E
:1056A0008542E0D8ECE706F0C1FF032F03D8DFE81E
:1056B00007F002110E141C4B1B788342CFDB0F281E
:1056C0002CDD032F0CD8DFE807F00B191121174B45
:1056D0001B78F2E7164B1B78EFE7164B1B78ECE7CD
:1056E000A0F11003104ADBB21370B8E7A0F1100369
:1056F0000E4ADBB213700120BDE8F081A0F1100367
:105700000B4ADBB213700120BDE8F081A0F1100359
:10571000084ADBB213700120BDE8F081012088F84F
:105720000000BDE8F08100BF18E400E04AE400E0BA
:1057300019E400E05BE400E00369490083F83C11F0
:10574000036900220121C3F84412027183F8512237
:10575000704700BF2DE9F043044683B0D0F84402FF
:1057600000258DF80750C0B190461E460BB9D4F8FD
:105770006862A269137843F050031370A26913782A
:1057800003F0DF031370E36812221A7020460DF154
:1057900007033246FFF74AFF10B903B0BDE8F083B4
:1057A00094F84832B3B19DF807209AB9591E0129DF
:1057B000F3D80120022B84F8510284F85082C4F8F7
:1057C00040225ED0A368F0221A70236994F83C212D
:1057D0001A70E2E707F088F8012384F85132D4F810
:1057E000445284F850820746EDB104F23B1800257C
:1057F0004FF0020936BB236918F8012F1A70E268CE
:1058000013789807FCD582F80090E2681378DBB231
:10581000D9061DD4DB0724D4D4F844320135AB4279
:10582000E8D894F85082D4F84432AB4225D9042306
:1058300084F85132B8F1010FA3680CBF8022B02266
:105840001A70AAE707F050F8C01B8642D3D8E8E7E1
:105850001023072184F851121370A36880221A7054
:105860009BE735B1062384F85132A36880221A7071
:1058700093E7052384F85132F7E7002384F8513287
:10588000D8E7D4F84432042B9CD9D4F8641284F8B5
:105890005A020D68D4F84432EA710E68A88004F503
:1058A0009F772F60B0600D68033B98B2E88309686A
:1058B0005B42EB60C882D4F8641220690B68B0F1D7
:1058C000804F9A7118619A820B6801D39A6812B955
:1058D00001229A600B6800229A6173E72DE9F04378
:1058E00083B000258DF807509DF828700B9E2BB1D2
:1058F000B3F5827F05D3082380F8513203B0BDE8A9
:10590000F083C0F83451C0F85432C0F838510EB9A1
:10591000D0F8686290468269137843F050031370A0
:105920008269137803F0DF031370C36812221A70C0
:105930000DF1070332460446FFF778FE0028DDD05C
:1059400094F84832C3B19DF80720AAB9591E01291D
:10595000D4D802218B4284F8507284F8511200F09E
:10596000EC80A268F02111704FEA480343F0010374
:105970002269DBB21370C1E706F0B6FF4FEA4803B5
:10598000226984F8507243F00103DBB2022184F8EB
:1059900051121370E268054613789807FCD502236C
:1059A0001370E2681378DBB2D90608D4DA070FD592
:1059B000A3680521802284F851121A709EE71023F3
:1059C000072184F851121370A36880221A7095E79A
:1059D000D4F854320322012BA36884F851220CBF5F
:1059E000A822A0221A7023691B7802274FF0000812
:1059F0004FF0B009D4F83821D4F854329A42BFF4A9
:105A00007DAF94F85132032B7FF478AFE2681378BE
:105A10009B07FCD51770002E46D1D4F83831D4F846
:105A2000542202339A422ED13346A268A821117023
:105A3000D4F83811D4F854220131914265D3A268C8
:105A400084F8598282F8009022691078D4F83821BD
:105A5000A1180132C4F8382181F83000002B4CD154
:105A600094F8503284F85182012BC3D100233C2298
:105A7000013AFDD1A26880211170002BBAD0012318
:105A800084F85932B4E7D4F838310133934244D220
:105A9000002322691078D4F83821A1180132C4F803
:105AA000382181F83000E8E706F01EFFD4F83831DD
:105AB000D4F85422401B991C86428CBF002301233A
:105AC0009142B2D08642DED894F859320BB9012304
:105AD000ABE7D4F8381101318A421AD8A36884F8A8
